:020000040800F2
:10000000200D0020950900084D0300084F0300084B
:1000100053030008570300085B03000800000000BA
:100020000000000000000000000000005F03000866
:100030006103000800000000630300086503000876
:10004000AB090008AB090008AB090008AB090008C0
:10005000AB090008AB090008AB090008AD030008B4
:10006000AB090008AB0900082D250008AB09000802
:10007000AB090008AB090008AB090008AB09000890
:10008000AB090008AB090008AB090008AB09000880
:10009000AB090008AB090008AB090008AB09000870
:1000A000AB090008AB090008AB090008AB09000860
:1000B000AB090008AB09000877040008AB09000889
:1000C000AB090008AB090008AB090008AB09000840
:1000D000AB09000831060008010700082D070008D9
:1000E000AB090008AB090008AB09000800F002F8F2
:1000F00000F090F80AA090E8000C82448344AAF132
:100100000107DA4501D100F085F8AFF2090EBAE82F
:100110000F0013F0010F18BFFB1A43F0010318473B
:100120000C4400002C440000103A24BF78C878C169
:10013000FAD8520724BF30C830C144BF04680C60ED
:10014000704700000023002400250026103A28BF35
:1001500078C1FBD8520728BF30C148BF0B60704739
:100160006E2902F0FA86702902F06185662904F092
:100170005981652904F05681672904F0538161296A
:1001800004F0528103681B0A28BF41F080016929ED
:1001900002F0D284642902F0CF84752902F0CC8465
:1001A0006F2902F0F387782902F02D85E92902F002
:1001B0008D87E42902F08A87F52902F08787EF29E5
:1001C00002F0F087F82902F02C850368DB0928BFCC
:1001D00041F08001632902F0FC86732902F0018757
:1001E000E32903F0C383F32903F0C8830020704799
:1001F0001FB503F019FC04000020002104F0FCF8F6
:10020000401C60600020002104F0E0F8E0601FBDA9
:1002100010B510BD03F0DAFB1146FFF7E9FF00F05F
:1002200009F803F0B3FC03B4FFF7F2FF03BC00F0DE
:10023000A5F9000086B001240225052606274FF007
:10024000000826A207CA03AB07C38DF811408DF83A
:1002500012508DF813608DF814708DF815804FF0E2
:100260000B0900F021F9300200F0B0FB4FF4E1304F
:1002700000F092F91CA002F0EDFB00F0A1F806E0FE
:100280001FA002F0E7FB4FF4967000F04AF902F06D
:10029000D9F90028F4D11FA002F0DCFB02F03FFAEC
:1002A00020A002F0D7FBEE20034601220021CDE979
:1002B000000920A002F0CEFB0FE09DF81500401CC5
:1002C000C0B28DF8150003AB1722EE21084602F0EC
:1002D000AFFA4FF47A7000F024F9EEE780071100CE
:1002E000010000000000810075617274315F696E69
:1002F00069742073756363657373210A00000000DD
:100300004C6F526120756E64657465637465642E0C
:100310002E2E0A004C6F526120646574656374650B
:1003200064210A007374617274207768696C6528AF
:1003300031290A006164643D20256420256420255C
:10034000642025642025640A00000000704700BF77
:10035000FEE700BFFEE700BFFEE700BFFEE7704715
:100360007047704770470EB50121084600F0B8FE8F
:100370000121002000F00EFD0220019000208DF8E8
:1003800008000C208DF8090001A802F02DF80720C4
:100390008DF8000002208DF8010001208DF8020088
:1003A0008DF80300684600F016FB0EBD10B5022064
:1003B00002F080F810B1022002F08DF810BD0000AC
:1003C00008B50121102000F08BFE4FF40050ADF86D
:1003D000000010208DF8030003208DF8020069460C
:1003E000044800F0C1FB4FF40051024800F069FCE2
:1003F00008BD00000010014010B504460021284847
:1004000001F09AFF26482C300088002024492C3126
:100410000880084600882043088010BD7FB5054647
:100420000C460121042000F068FEADF80850ADF83C
:1004300004400020ADF80A00ADF8060001A91848F4
:1004400001F08AF901221146154801F0FCFC1E203A
:100450008DF8000000208DF8010002208DF80200C8
:1004600001208DF80300684600F0B5FA01210C4820
:1004700001F0CEFC7FBD10B50121094801F091FFCC
:1004800068B10121064801F09DFF0648008840F44C
:100490000040044908800021014801F0B9FC10BD6A
:1004A000000800402000002010B56FF0040000F0AC
:1004B000DCFA2E4800682E49B0FBF1F02D49087097
:1004C0000846007800EB4001C1EBC0104FF6FF7109
:1004D00001EAC0002849088010BD0146254A12786B
:1004E0004A434FF0E0235A6100229A611A4612698A
:1004F00042F001021A6100BF4FF0E022106900F0E3
:1005000001021AB100F48032002AF5D04FF0E02247
:10051000126922F001024FF0E0231A6100229A6171
:1005200070470146144A12884A434FF0E0235A614B
:1005300000229A611A46126942F001021A6100BF54
:100540004FF0E022106900F001021AB100F480328D
:10055000002AF5D04FF0E022126922F001024FF09C
:10056000E0231A6100229A61704700000000002019
:1005700000127A00140000201600002000BF70470F
:1005800000BF674A128802F04002002AF9D0C2B2C6
:10059000634B1B1D1A80704710B586B004460121BD
:1005A00044F2040000F09CFD4FF40070ADF814001C
:1005B00003208DF8160018208DF8170005A959485A
:1005C00000F0D2FA4FF48060ADF8140004208DF8EA
:1005D000170005A9534800F0C7FA25208DF8000040
:1005E00003208DF801008DF8020001208DF8030032
:1005F000684600F0F0F901940020ADF80800ADF86D
:100600000A00ADF80C00ADF810000C20ADF80E009B
:1006100001A9434800F00BFE012240F22551404859
:1006200000F09DFE01213E4800F08DFE06B010BD99
:1006300010B540F225513A4800F076FF18B138481D
:1006400000F0F2FEC4B210BD10B588B0044601211E
:10065000052000F045FD0121480400F04EFD042076
:10066000ADF81C0003208DF81E0018208DF81F0027
:1006700007A92C4800F078FA0820ADF81C000420E7
:100680008DF81F0007A9274800F06EFA26208DF884
:10069000080001208DF809008DF80A008DF80B0084
:1006A00002A800F098F903940020ADF81000ADF80E
:1006B0001200ADF81400ADF818000C20ADF81600CB
:1006C0000020ADF80000ADF802004FF40070ADF866
:1006D00004000020ADF806006946134800F01CFE37
:1006E00003A9114800F0A3FD012240F225510E4854
:1006F00000F035FE01210C4800F025FE08B010BDC9
:1007000010B540F22551084800F00EFF38B10648F8
:1007100000F08AFEC4B22146034800F081FE10BDFD
:1007200000380140000801400044004010B540F28C
:1007300025518F4800F0F8FE10B38D4800F074FE8C
:10074000C4B28C48008800F40040C8B989480088C9
:10075000B0F5806F15DA8848007850B900218748D5
:1007600001F0EAFD8348008818B90121834801F0AF
:100770004FFB80490888411C7E4A118080490C54F7
:1007800005E07C48008840F400407A49088010BDAC
:100790001CB504460121082000F0A2FC01218804B8
:1007A00000F0ABFC724800F0FFFC4FF48060ADF845
:1007B000000003208DF8020018208DF80300694620
:1007C000704800F0D1F94FF40060ADF8000004204B
:1007D0008DF8030069466B4800F0C6F96A4804606A
:1007E000002069498880C880088188810C20488160
:1007F0005F4800F01CFD01215D4800F0A4FD0122CE
:1008000040F225515A4800F0AAFD27208DF8040037
:1008100002208DF8050003208DF8060001208DF8D8
:10082000070001A800F0D7F841F61F416320FFF749
:10083000F5FD00204F4908800021504801F0E8FAFA
:100840001CBD0FB438B505A800905048009A049913
:1008500002F0EEF8002000904C4802F0C9FA85B290
:1008600000240DE000BF4021414800F047FE002871
:10087000F9D04648015D3E4800F0D2FD601C84B2CC
:10088000AC42EFDB38BC5DF814FB70B505460C4696
:10089000082D2DD2DFE805F004090E13181D2227BC
:1008A0004FF496603A49086022E04FF416603849E8
:1008B00008601DE04FF496503549086018E04FF489
:1008C00016503349086013E04FF4964030490860F1
:1008D0000EE04FF416402E49086009E04FF46140E5
:1008E0002B49086004E04FF4E1302949086000BF5B
:1008F00000BF00211E4800F026FD2548006822495F
:1009000008600020C88014B9888008810FE0012C9D
:1009100005D120031C4988808010088107E0022C43
:1009200005D1E002184988804FF4C060088116495B
:100930000F4800F07CFC01210D4800F004FD70BD63
:1009400010B5044600210A4800F0FDFC1CB10C2043
:100950000D49488102E008200B4948810A490448B2
:1009600000F065FC0121024800F0EDFC10BD000024
:1009700000480040200000205400002000080040F3
:1009800058000020000C0140B00600205804002050
:100990002400002008480047FEE7FEE7FEE7FEE7E8
:1009A000FEE7FEE7FEE7FEE7FEE7FEE70348044951
:1009B000044A054B70470000ED00000820070020A6
:1009C000200D00202009002020090020314901438A
:1009D000314A1160704770B5002100230F22C4789E
:1009E00004B32D4C246804F4E064C4F5E064210AE7
:1009F000C1F10403CA40447804FA03F18478144036
:100A000021430901254C0678A155047804F01F05FF
:100A10000124AC4005786D11AD0005F1E025C5F865
:100A2000004109E0047804F01F050124AC401C4D8E
:100A30000678761145F8264070BD1A4A0A400243EE
:100A4000154B1B1F1A60704739B1134A121D1268EB
:100A50000243114B1B1D1A6006E00F4A121D12685B
:100A600082430D4B1B1D1A607047042808D14FF0BC
:100A7000E021096941F004014FF0E022116107E033
:100A80004FF0E021096921F004014FF0E0221161EB
:100A9000704700000000FA050CED00E000E400E003
:100AA00080E100E080FFFF1F10B50446CC4884427F
:100AB00008D10121042000F02DFB0021042000F0CA
:100AC00029FB46E0C748844208D10121082000F0F4
:100AD00021FB0021082000F01DFB3AE0C2488442BF
:100AE00008D10121102000F015FB0021102000F09A
:100AF00011FB2EE0BD48844208D10121202000F0E6
:100B000009FB0021202000F005FB22E0B8488442C8
:100B100008D10121402000F0FDFA0021402000F022
:100B2000F9FA16E0B348844208D10121802000F090
:100B3000F1FA0021802000F0EDFA0AE0AE4884428C
:100B400007D10121801500F0E5FA0021A01500F081
:100B5000E1FA10BD10B50121084600F0DBFA0021D2
:100B6000012000F0D7FA10BD2DE9F0410246002522
:100B70000026002000230024002791F803C00CF079
:100B80000F0591F803C00CF0100CBCF1000F03D05E
:100B900091F802C04CEA050591F800C0BCF1000FC5
:100BA00031D0146800202BE04FF0010C0CFA00F358
:100BB000B1F800C00CEA03069E4220D183004FF03A
:100BC0000F0C0CFA03F7BC4305FA03FC4CEA0404CF
:100BD00091F803C0BCF1280F06D14FF0010C0CFABC
:100BE00000FCC2F814C00AE091F803C0BCF1480F41
:100BF00005D14FF0010C0CFA00FCC2F810C0401CEB
:100C00000828D1D31460B1F800C0BCF1FF0F34DD67
:100C1000546800202EE000F1080C4FF0010808FA9B
:100C20000CF3B1F800C00CEA03069E4221D1830008
:100C30004FF00F0C0CFA03F7BC4305FA03FC4CEA27
:100C4000040491F803C0BCF1280F05D100F1080C91
:100C500008FA0CF8C2F8148091F803C0BCF1480FF0
:100C600007D100F1080C4FF0010808FA0CF8C2F89F
:100C70001080401C0828CED35460BDE8F0814FF6A8
:100C8000FF710180022181700421C170704702460A
:100C9000002093680B400BB1012000E0002070475A
:100CA0000146886880B2704702460020D3680B4036
:100CB0000BB1012000E0002070470146C86880B2F7
:100CC000704701617047416170470AB1016100E0FE
:100CD00041617047C16070474FF480320A438261BE
:100CE0008161826182698269704702460020434BBC
:100CF00018684FF68073184040EA021008433F4BD3
:100D0000186070473E49C8617047F0B50A46002335
:100D100000240021002500F00046B6F1004F02D16A
:100D2000364EF16901E0354E7168C0F3034583B278
:100D300000F44016B6F5401F08D121F070612F4E27
:100D4000766826F070662D4F7E6012E000F4801603
:100D5000B6F5801F06D1032606FA05F4A14341F03B
:100D6000706106E0460D360103FA06F6B14341F024
:100D7000706122B1460D360103FA06F6314300F0E8
:100D80000046B6F1004F02D11C4EF16101E01B4E4E
:100D90007160F0BD30B500228B071C0F0F2303FAE2
:100DA00004F2164B08338C1053F824309343134C41
:100DB00008348D1044F8253023468C1053F8243025
:100DC0008C07240F00FA04F423430C4C08348D10D4
:100DD00044F8253030BD0A49DC3108607047000016
:100DE00000080140000C01400010014000140140C7
:100DF00000180140001C014000200140000001409B
:100E000000002042DF48006840F00100DD49086032
:100E100008464068DC490840DA49486008460068EE
:100E2000DA490840D74908600846006820F4802065
:100E300008600846406820F4FE0048604FF41F0038
:100E400088607047CF49096821F48031CD4A11602C
:100E50001146096821F480211160B0F5803F03D06C
:100E6000B0F5802F0ED106E0C649096841F4803103
:100E7000C44A116007E0C349096841F4A021C14A8E
:100E8000116000E000BF00BF704710B501460022AE
:100E9000002300204A11012A02D1BA4C236806E03F
:100EA000022A02D1B74C236A01E0B64C636A01F012
:100EB0001F02012494401C400CB1012000E00020DE
:100EC00010BD38B5002000900024002500BF31205F
:100ED000FFF7DBFF05460098401C00900098B0F536
:100EE000A06F01D0002DF2D03120FFF7CEFF08B166
:100EF000012400E00024204638BD01460020A14A1C
:100F0000106820F0F80040EAC10010607047A04966
:100F100008607047024600209A4B586820F47C1005
:100F200042EA01031843974B586070479849086696
:100F3000704701460020934A506820F003000843A0
:100F4000506070478F48406800F00C0070470146C1
:100F500000208C4A506820F0F00008435060704731
:100F600001460020874A506820F4E0600843506042
:100F7000704701460020834A506820F4605040EAE0
:100F8000C1005060704729B17E4A527A02437D4BBE
:100F90005A7204E07B4A527A82437A4B5A72704703
:100FA0007B49D8310860704701460020754A506877
:100FB00020F440400843506070470021714A2032BD
:100FC0001170704A82F82010012802D004280AD13A
:100FD00004E001216B4A2032117005E00521694AC5
:100FE0002032117000E000BF00BF704769490860FF
:100FF00070476449096A0143624A11627047654952
:1010000044390860704730B50021002200240023D5
:101010005C4D6D6805F00C0121B1042905D008294B
:1010200023D105E05C4D056022E05B4D05601FE0CB
:10103000544D6D6805F47012524D6D6805F480349E
:10104000022505EB92421CB9544D554305600BE057
:101050004C4D6D6805F400351DB1504D554305608C
:1010600002E04D4D5543056002E04B4D056000BF69
:1010700000BF444D6D6805F0F0010909484D6B5CF7
:101080000568DD4045603F4D6D6805F4E061090A83
:10109000434D6B5C4568DD4085603A4D6D6805F4F5
:1010A0006051C90A3E4D6B5C4568DD40C560354DF9
:1010B0006D6805F44041890B3A4D6B5CC568B5FB22
:1010C000F3F5056130BD29B12E4A526902432D4B1B
:1010D0005A6104E02B4A526982432A4B5A61704795
:1010E00029B1284A92690243264B9A6104E0254AB5
:1010F00092698243234B9A61704729B1214AD26990
:101100000243204BDA6104E01E4AD26982431D4B40
:10111000DA61704729B11B4AD2680243194BDA6081
:1011200004E0184AD2688243164BDA60704729B14E
:10113000144A12690243134B1A6104E0114A1269FE
:101140008243104B1A61704712494039086070475A
:101150000F49C86470470B49C87170470948406A15
:1011600040F0807007494862704701460020054AF8
:1011700092680A400AB1012000E00020704701494E
:1011800088727047001002400000FFF8FFFFF6FE73
:10119000000042428004424200127A0000093D00F1
:1011A000280000203800002010B50446FB48844287
:1011B00009D101218803FFF7ADFF00214FF48040E2
:1011C000FFF7A8FF32E0F648844209D10121480424
:1011D000FFF7ADFF00214FF40030FFF7A8FF25E037
:1011E000F048844209D101218804FFF7A0FF0021C3
:1011F0004FF48020FFF79BFF18E0EB48844209D1B1
:101200000121C804FFF793FF00214FF40020FFF7EE
:101210008EFF0BE0E548844208D101210805FFF765
:1012200086FF00214FF48010FFF781FF10BD2DE9EC
:10123000F04786B005460E460024A24600BFA146F0
:101240000027B08900B100BF2F462C8A4CF6FF70F2
:101250000440F08804432C82AC894EF6F31004401D
:10126000B08831890843718908430443AC81AC8A52
:101270004FF6FF400440B0890443AC8201A8FFF759
:10128000C2FEC648874202D1DDF810A001E0DDF8B9
:101290000CA0A88900F4004040B10AEBCA0000EBA2
:1012A0000A1031684900B0FBF1F807E00AEBCA0008
:1012B00000EB0A1031688900B0FBF1F86420B8FB3C
:1012C000F0F004012009642101FB1089A88900F4D1
:1012D000004040B1322000EBC900B0FBF1F000F05B
:1012E0000700044308E0322000EB09106421B0FB42
:1012F000F1F000F00F0004432C8106B0BDE8F08748
:101300004FF41651016000218180C18001810C21C0
:10131000418100218181704710B502460020108A6A
:101320004FF2FF0318400B884C8823438C882343DB
:10133000CC8823431843108210BD002101804180D6
:101340008180C180704721B1828942F4005282813C
:1013500004E082894DF6FF731A4082817047F0B530
:101360000346002400260025002040F66A17B942F3
:1013700000D100BF1846C1F3421401F01F06012737
:1013800007FA06F5012C01D10C3004E0022C01D142
:10139000103000E014301AB107682F43076002E0F4
:1013A0000768AF430760F0BD1AB1838A0B4383829D
:1013B00002E0838A8B4383827047028A4FF6F07380
:1013C0001A400282028A0A430282704782894FF2DF
:1013D000FF731A40828182890A438281704721B15A
:1013E000828942F00202828104E082894FF6FD7315
:1013F0001A4082817047028A4FF6DF731A400282D8
:10140000028A0A430282704721B1028A42F4804272
:10141000028204E0028A4BF6FF731A400282704790
:10142000C1F308028280704701468888C0F3080033
:101430007047818941F0010181817047028BD2B2EE
:101440000283028B42EA012202837047028B02F47C
:101450007F420283028B0A430283704721B1828A52
:1014600042F02002828204E0828A4FF6DF731A4043
:101470008282704721B1828A42F01002828204E0A7
:10148000828A4FF6EF731A408282704721B1828AB6
:1014900042F00802828204E0828A4FF6F7731A4013
:1014A0008282704721B1828942F40042828103E046
:1014B0008289C2F30E028281704721B1828A42F48E
:1014C0000062828204E0828A4FF2FF731A408282B5
:1014D0007047828A4FF6FB731A408282828A0A43DF
:1014E0008282704721B1828A42F00202828204E045
:1014F000828A4FF6FD731A408282704702460020AE
:10150000B1F5007F00D100BF13880B400BB1012063
:1015100000E00020704701F40072B2F5007F00D1B6
:1015200000BFCA430280704770B502460024002302
:101530000025002040F66A16B14200D100BFC1F379
:10154000421501F01F03012606FA03F3012D02D113
:101550009689334006E0022D02D1168A334001E01D
:10156000968A33400C12012606FA04F41688344099
:1015700013B10CB1012000E0002070BD10B50022B5
:10158000002340F66A14A14200D100BF0A120124D0
:101590009440A3B2DC43048010BD00000038014039
:1015A0000044004000480040004C00400050004013
:1015B00010B50446FE48844208D10121C014FFF74B
:1015C000A9FD0021E014FFF7A5FDC4E0B4F1804FB0
:1015D00008D101210846FFF7AAFD00210120FFF7ED
:1015E000A6FDB8E0F348844208D101210220FFF7AC
:1015F0009EFD00210220FFF79AFDACE0EE488442F8
:1016000008D101210420FFF792FD00210420FFF7FB
:101610008EFDA0E0E948844208D101210820FFF7AF
:1016200086FD00210820FFF782FD94E0E448844213
:1016300008D101211020FFF77AFD00211020FFF7CB
:1016400076FD88E0DF48844208D101212020FFF7A1
:101650006EFD00212020FFF76AFD7CE0DA4884421D
:1016600008D101214014FFF755FD00216014FFF758
:1016700051FD70E0D548844209D10121C804FFF72B
:1016800049FD00214FF40020FFF744FD63E0D048FE
:10169000844209D101210805FFF73CFD00214FF4E8
:1016A0008010FFF737FD56E0CA48844209D1012176
:1016B0004805FFF72FFD00214FF40010FFF72AFD2A
:1016C00049E0C548844208D101214020FFF72FFDA1
:1016D00000214020FFF72BFD3DE0C048844208D1A7
:1016E00001218020FFF723FD00218020FFF71FFD4F
:1016F00031E0BB48844208D101218015FFF717FD76
:101700000021A015FFF713FD25E0B648844209D15A
:1017100001210804FFF7FEFC00214FF48030FFF7A1
:10172000F9FC18E0B048844209D101214804FFF7D0
:10173000F1FC00214FF40030FFF7ECFC0BE0AB486C
:10174000844208D101218804FFF7E4FC00214FF412
:101750008020FFF7DFFC10BD00220288944B9842E6
:101760000ED0994B98420BD0B0F1804F08D0914BDE
:10177000984205D0904B984202D0904B984204D1A9
:101780004FF68F731A404B881A438D4B984207D0FF
:101790008C4B984204D04FF6FF431A40CB881A4333
:1017A00002808B8883850B880385814B98420BD000
:1017B000854B984208D08B4B984205D08A4B984273
:1017C00002D08A4B984201D10B7A0386012383828F
:1017D000704770B5002400220023058C4FF6FE767A
:1017E00035400584028C8388048B4FF68F752C401E
:1017F000B51E2C400D882C43751E2A400D892A43A6
:101800004D882A436A4DA8420BD06F4DA84208D09C
:10181000744DA84205D0744DA84202D0734DA84221
:1018200013D14FF6F7752A404D892A434FF6FB75C1
:101830002A408D882A434FF6FF652B404FF6FF550F
:101840002B408D892B43CD892B4383800483CD8806
:101850008586028470BD70B5002400220023058CAB
:101860004FF6EF7635400584028C8388048B48F66A
:10187000FF752C404FF6FF452C400D884FF6FF7644
:1018800006EA05252C434FF6DF752A400D8906EA46
:1018900005152A434D8806EA05152A43444DA842FA
:1018A00002D0494DA8421DD14FF67F752A404D897F
:1018B0004FF6FF7606EA05152A434FF6BF752A4014
:1018C0008D8806EA05152A434FF6FF352B404FF267
:1018D000FF752B408D8906EA85052B43CD8906EAE5
:1018E00085052B4383800483CD880587028470BDE2
:1018F00070B5002400220023058C4FF6FF663540AA
:101900000584028C8388848B4FF68F752C404FF6AC
:10191000FC752C400D882C434FF6FF552A400D894D
:101920004FF6FF7606EA05252A434D8806EA052587
:101930002A431F4DA84202D0234DA8421DD14FF289
:10194000FF752A404D894FF6FF7606EA05252A43A2
:101950004FF6FF352A408D8806EA05252A434EF6C4
:10196000FF752B404DF6FF752B408D8906EA051556
:101970002B43CD8906EA05152B4383808483CD88CC
:101980008587028470BD70B5002200230024058C79
:101990004EF6FF7635400584038C8488828B48F6AA
:1019A000FF752A404FF6FF452A400D8820E00000D1
:1019B000002C01400004004000080040000C0040E2
:1019C000001000400014004000340140004C014071
:1019D000005001400054014000180040001C00402D
:1019E0000020004000400140004401400048014008
:1019F0004FF6FF7606EA05252A434DF6FF752B4084
:101A00000D8906EA05352B434D8806EA05352B433B
:101A1000FA4DA84202D0FA4DA84208D14BF6FF7504
:101A20002C408D894FF6FF7606EA85152C4384807D
:101A30008283CD88A0F84050038470BD828B4FF222
:101A4000FF331A408283828B4FF6FF7303EA012330
:101A50001A4382837047F0B50C46154600220021D8
:101A60000026078C4EF6FF7C07EA0C070784828B62
:101A7000018C4FF6FF7707EA043640F6FF473A40FD
:101A80004FF6FF7707EA05273A434FF6FF7707EA55
:101A900003373A43D94FB8420ED0D94FB8420BD092
:101AA000B0F1804F08D0D74FB84205D0D64FB842DA
:101AB00002D0D64FB84206D14DF6FF77394046F4F2
:101AC0008057394305E047F6FF57394044F48057C3
:101AD000394382830184F0BD828B4FF6F3731A4041
:101AE0008283828B0A4382837047F0B50C46154689
:101AF000002200210026078C4FF6FF6C07EA0C0736
:101B00000784828B018C4FF6FF7707EA04264FF695
:101B10000C773A404FF6FF7707EA03172F433A4313
:101B2000B64FB8420ED0B64FB8420BD0B0F1804F8E
:101B300008D0B44FB84205D0B34FB84202D0B34F2B
:101B4000B84206D14FF6FF57394046F48077394303
:101B500005E04FF2FF57394044F4807739438283E0
:101B60000184F0BD028B4FF2FF331A400283028BD7
:101B70004FF6FF7303EA01231A4302837047F0B55F
:101B80000C461546002200210026078C4FF6EF7CFC
:101B900007EA0C070784028B018C4FF6FF7707EAF0
:101BA000041640F6FF473A404FF6FF7707EA03373F
:101BB0003A434FF6FF7707EA05273A438F4FB8427B
:101BC0000ED08F4FB8420BD0B0F1804F08D08D4F60
:101BD000B84205D08C4FB84202D08C4FB84206D1E3
:101BE0004FF6DF77394046F01007394305E04FF6EE
:101BF0005F77394044F01007394302830184F0BD18
:101C0000028B4FF6F3731A400283028B0A4302835E
:101C10007047F0B50C46154600220021068C4FF6A1
:101C2000FE773E400684028B018C4FF60C763240E4
:101C30007E1C06EA03162E433243704EB0420ED08D
:101C40006F4EB0420BD0B0F1804F08D06D4EB04215
:101C500005D06D4EB04202D06C4EB04206D14FF668
:101C6000FD76314044F00106314305E04FF6F5764C
:101C7000314044F00106314302830184F0BD70B568
:101C800005460C465D4885420ED05D4885420BD026
:101C9000B5F1804F08D05B48854205D05A4885424F
:101CA00002D05A48854200D100E000BF208850B9D8
:101CB0002389A28861882846FFF7ABFFE188284680
:101CC000FFF79EFF25E0208804280AD12389A288F7
:101CD00061882846FFF753FFE1882846FFF742FF57
:101CE00017E0208808280AD12389A288618828461D
:101CF000FFF7FBFEE1882846FFF7EEFE09E02389A7
:101D0000A28861882846FFF7A6FEE1882846FFF7EB
:101D100095FE70BD2DE9F04105460C4600260127D1
:101D2000608808B9022600E00026A088012801D1B9
:101D3000022700E001272088A0B92389A2886188B2
:101D40002846FFF766FFE1882846FFF759FF2389F9
:101D50003A4631462846FFF712FFE1882846FFF74A
:101D600001FF13E02389A28861882846FFF707FF57
:101D7000E1882846FFF7F6FE23893A463146284691
:101D8000FFF747FFE1882846FFF73AFFBDE8F081FB
:101D90000A884B881A438B881A43CB881A430B89CD
:101DA0001A434B891A438B891A43A0F84420704781
:101DB0004FF6FF71818000210180C1804180017256
:101DC00070470021018041808180C1800181418173
:101DD0008181C18170470021018041800121818082
:101DE0000021C180018170470021018041808180F4
:101DF000C18001814181818170470000002C014038
:101E0000003401400004004000080040000C004085
:101E100021B1028842F00102028004E002884FF6FC
:101E2000FE731A400280704731B1B0F8442042F48A
:101E30000042A0F8442005E0B0F84420C2F30E02AE
:101E4000A0F8442070471AB183890B43838102E0D4
:101E500083898B43838170478182704741EA020303
:101E6000A0F8483070471AB183890B43838102E0A0
:101E700083898B438381704701894FF6F872114043
:101E8000018170470A46002101894FF68F7319407E
:101E900011430181704730B504460D46294620465E
:101EA000FFF7F0FF208940F00700208130BD2DE9C9
:101EB000F04104460D4616461F46602D06D13B46AE
:101EC000012231462046FFF75AFE05E03B4601223B
:101ED00031462046FFF79DFE29462046FFF7D2FFF8
:101EE000208940F007002081BDE8F08130B50C4624
:101EF00000210189C9B24FF6FF7505EA0325154394
:101F000025432943018130BD2DE9F04105460E46A8
:101F100017469846002443463A4631462846FFF77E
:101F2000E5FF2C894FF6F870044044F007044FF6A3
:101F30008F70044044F070042C81BDE8F081F0B54E
:101F400004460D4616461F463B4632462946204665
:101F5000FFF7CCFF208940F480402081F0BD01854F
:101F6000828270470A46002101884FF68F7319401C
:101F7000114301807047F0B50C4615461E460021FE
:101F8000002200230189028B038C4FF6F877394039
:101F900021434FF6FC473A4040F201173A434FF6CF
:101FA000DD773B404FF6FF7707EA06172F433B43A9
:101FB000018102830384F0BD0A460021018B4FF6A4
:101FC0008F7319401143018370470A460021018B2A
:101FD00048F6FF7319404FF6FF7303EA02231943D3
:101FE000018370470A460021818B4FF68F73194099
:101FF0001143818370470A460021818B48F6FF73A5
:1020000019404FF6FF7303EA022319438183704797
:1020100021B1028842F08002028004E002884FF67B
:102020007F731A400280704721B1828842F0040217
:10203000828004E082884FF6FB731A4082807047EA
:1020400021B1828842F00802828004E082884FF643
:10205000F7731A408280704721B1828842F00102F2
:10206000828004E082884FF6FE731A4082807047B7
:102070000A460021018B4FF6F77319401143018383
:1020800070470A460021018B4FF2FF7319404FF64B
:10209000FF7303EA02231943018370470A460021B4
:1020A000818B4FF6F77319401143818370470A46BD
:1020B0000021818B4FF2FF7319404FF6FF7303EA43
:1020C00002231943818370470A460021018B4FF692
:1020D000FB7319401143018370470A460021018BAD
:1020E0004FF6FF3319404FF6FF7303EA02231943FB
:1020F000018370470A460021818B4FF6FB7319401C
:102100001143818370470A460021818B4FF6FF33CC
:1021100019404FF6FF7303EA022319438183704786
:102120000A460021018B4FF67F731940114301834A
:1021300070470A460021018BC1F30E014FF6FF7371
:1021400003EA02231943018370470A460021818B69
:102150004FF67F7319401143818370470A4600216F
:10216000818BC1F30E014FF6FF7303EA022319437B
:10217000818370470A460021018C4FF6FD73194098
:102180001143018470470A460021018C4FF6F77312
:1021900019401143018470470A460021018C4FF613
:1021A000DF7319404FF6FF7303EA021319430184EA
:1021B00070470A460021018C4FF67F7319404FF695
:1021C000FF7303EA02131943018470470A46002192
:1021D000018C4FF6FF5319404FF6FF7303EA0223B9
:1021E0001943018470470A460021018C4FF2FF73A6
:1021F00019404FF6FF7303EA022319430184704725
:102200000A460021018C4DF6FF7319404FF6FF730B
:1022100003EA023319430184704730B500230124D7
:102220008C40A3B2048C9C430484048C02FA01F514
:10223000ADB22C43048430BD30B5002304248C405F
:10224000A3B2048C9C430484048C02FA01F5ADB261
:102250002C43048430BD70B503460020002418468A
:10226000183001258D40ACB21D8CA5431D8409B1E9
:10227000082909D100EB6100056825F070050560AB
:102280000568154305600EE00D1FC5F34E05284493
:10229000056825F4E045056005684FF6FF7606EA17
:1022A00002263543056070BD21B1028842F002026A
:1022B000028004E002884FF6FD731A4002807047E6
:1022C00021B1028842F00402028004E002884FF645
:1022D000FB731A400280704721B1828842F080026D
:1022E000828004E082884FF67F731A4082807047B4
:1022F00002884FF6F7731A40028002880A43028070
:10230000704782884FF68F731A40828082880A4312
:102310008280704702894FF6F8731A400281028961
:102320000A430281704702894FF67F731A40028187
:1023300002890A4302817047818470478185704712
:10234000818670470187704781877047A0F84010E9
:10235000704702884FF6FF431A40028002880A4302
:10236000028070470146888E70470146088F70478B
:102370000146888F70470146B1F84000704701461A
:10238000888C70470146088D704702460020138AEA
:102390000B400BB1012000E000207047CA430282CD
:1023A000704730B50246002000230024158A05EA54
:1023B0000103958905EA010413B10CB1012000E085
:1023C000002030BDCA43028270470000002044490B
:1023D0000860091D0860091D0860091D0860414862
:1023E0003F4914310860704700213D498279002A35
:1023F0003AD00A46126803689A430B461A600A1DCF
:10240000126803689A430B1D1A60027911440A6826
:1024100003681A430A60324A0832126803689A4312
:102420002F4B08331A601A1D126803689A432C4B0D
:102430000C331A604279102A0ED11A1F12680368F1
:102440001A43274B08331A601A1D126803681A438F
:10245000234B0C331A600DE02149427911440A687C
:1024600003681A430A6005E0027911440A680368A8
:102470009A430A6070470021016001710C2141718B
:102480000021817170471649103109680143144ACF
:1024900010321160704701460020114A1432126850
:1024A0000A400AB1012000E0002070470C491431B5
:1024B00008607047014600200022094B1B6803EAB0
:1024C0000102074B14331B680B4013B10AB1012002
:1024D00000E0002070470249143108607047000096
:1024E00000040140FFFF0F0010B504462CB9002086
:1024F000FD498871FD49C8700FE0012C03D1082007
:10250000F949487104E0022C02D10C20F6494871C7
:102510000120F5498871F549C870F5480470F24802
:10252000FFF762FFF148FEF756FA10BD10B5102014
:10253000FFF7C0FF002833D0ED48007801280DD107
:10254000EC480078012802D10020EB4908800220E5
:10255000E74908700020E94908601AE0E44800787B
:10256000022816D1E3480078012806D1E248008805
:1025700040F40040E049088006E0DE480078022888
:1025800002D10120DB4908700120D9490870DB49DC
:102590000860D7480078FFF7A7FF1020FFF79BFFE0
:1025A00010BD70B504460025D348008800F40040F3
:1025B00078B1D349D3A000F04DFA0020CE49098864
:1025C000C1F30E01CE4A50542146104600F0FEFBE6
:1025D0000546284670BD2DE9F04104460E461546D5
:1025E00000270020C4490880FF2C0AD800BFC64835
:1025F000008800F040000028F9D0C349091D0C8074
:1026000003E02146C1A0FEF71CF9C6B1BDB10FE041
:102610000A20FDF786FFB848008800F4004038B172
:102620003046FFF7BEFF00B106E00020B249088047
:10263000681E80B20500EBD100BF05B901273846FE
:10264000BDE8F08138B5032401210520FEF748FDDF
:102650002020ADF8000010208DF8030003208DF835
:1026600002006946AB48FEF77FFA1020ADF8000083
:1026700028208DF8030003208DF802006946A54844
:10268000FEF772FA04210020FEF784FB1020964921
:1026900008600020087108204871002088710846F1
:1026A000FFF7A2FE0A20914908700220487003201B
:1026B00088700020C8700846FEF78DF90020964902
:1026C00008609649C1F8100106E095A000F0C2F933
:1026D0004FF4FA70FDF725FF8F4884380068002812
:1026E000F3D14FF4E130FEF753F801208A49086036
:1026F0002820FDF716FF0BE021468EA000F0AAF976
:1027000046228FA18FA0FFF766FF08B9002038BDD1
:102710002000A4F10101CCB2EED10120F7E730B5E1
:1027200085B0002500210720FEF7AFF80120FEF755
:1027300007F900BF7848843800680028FAD10120E2
:10274000754908602820FDF7ECFE002069490870F3
:102750007D480088040A7C4805782B4622467BA1E8
:10276000684600F083F9322275A16846FFF733FF0F
:102770007548037982787AA1684600F077F93222A9
:102780006FA16846FFF727FF6F48C27878A16846B7
:1027900000F06CF932226AA16846FFF71CFF6A4814
:1027A000827977A1684600F061F9322264A1684617
:1027B000FFF711FF6448C27975A1684600F056F929
:1027C00032225FA16846FFF706FF5F48427973A196
:1027D000684600F04BF9322259A16846FFF7FBFE2C
:1027E0005948437A027A71A1684600F03FF93222D3
:1027F00053A16846FFF7EFFE00204849C1F8940155
:102800002820FDF78EFE00BF43488438006800286A
:10281000FAD1394908800120364908704A4A517A6C
:10282000107AFEF732F80120FFF75EFE05B030BDEA
:102830002DE9F04391B006460F4690469946202177
:1028400009A800F0F4FA202101A800F0F0FA002411
:102850000B25294659A000F0FDF800BF2E4884380A
:1028600000680028FAD10220224908703648C07951
:1028700058B957A000F0EEF859A109A800F0F6F8F1
:1028800009A922A0FDF7DDFFCAE02F48C079012881
:1028900028D158A000F0DEF88DF804608DF805709E
:1028A0008DF80680002406E019F80410E01C01AA47
:1028B0001154601C84B2AC42F6DB00240DE000BF72
:1028C00040211148FEF71AFE0028F9D001A8015D49
:1028D0000D48FEF7A5FD601C84B2E81C8442EEDBC7
:1028E000002496E09CE000004800002050000020FA
:1028F000550000205400002020000020B401224296
:1029000058000020257300000048004025730D0A80
:102910000000000000080140940121420000214213
:102920006D6F64756C652069732062757379210A17
:102930000000000072657472793D25640A00000091
:102940004F4B0000415400003C00002041542B41FB
:102950004444523D253032782C2530327800000036
:1029600041542B574C524154453D25642C2564005D
:1029700041542B54504F5745523D256400000000F0
:1029800041542B43574D4F44453D25640000000002
:1029900041542B544D4F44453D25640041542B5721
:1029A0004C54494D453D25640000000041542B55D1
:1029B0004152543D25642C25640000004469726531
:1029C0005F446174654C656E3D2025640A0000001B
:1029D0004C4F52415F5354415F5472616E0A000084
:1029E00041544B2D4C4F52412D30312054455354BE
:1029F000000000004C4F52415F5354415F446972E4
:102A0000650A000001A8015D07A000F023F8601C22
:102A100084B2E81C8442F5DBAFF2E00000F01AF863
:102A200011B0BDE8F0830000257820007047000059
:102A30001CB50C46064B7B4469460090204600F0CE
:102A4000A6FA04460020694600F0B4FA20461CBDF0
:102A50007B0500000FB4044910B503AA029800F0EA
:102A6000C5FA10BC5DF814FB1C0000200FB41CB5A7
:102A7000084B06AA7B4469460090059800F087FA47
:102A800004460020694600F095FA20461CBC5DF81B
:102A900014FB00003D05000070B504468569006820
:102AA000C10601D5302600E02026C00707D070BD42
:102AB000D4E9012130469047206A401C20626D1EF7
:102AC000F6D570BD70B5044685690078C00707D19A
:102AD00070BDD4E9012120209047206A401C20626B
:102AE0006D1EF6D570BD70B50C460546012A05D0A1
:102AF0002878800600D5EA69002302E0012305E07A
:102B00005B1C934202D2E05C0028F9D1A869E61868
:102B1000C01AA861286A184428622846FFF7BCFF3B
:102B200004E0D5E9012114F8010B9047B442F8D331
:102B30002846FFF7C7FF70BD2DE9F0410646002487
:102B400010687529314616A510D000F09BF90028B1
:102B500002DA404213A507E031688A0701D512A5C1
:102B600002E0490704D511A5012401E000F093F922
:102B700000210A2206F1240709E0B0FBF2FCB0FBB9
:102B8000F2F302FB1C00303078541846491C002830
:102B9000F3D123462A463046BDE8F04100F084B91F
:102BA000000000002D0000002B00000020000000AD
:102BB000F0B40D460188090502D5214C7C4402E0A1
:102BC0001F4C7C440E34002100F1240608E002F082
:102BD0000F071209E75D42EA03721B097754491C8B
:102BE00052EA0307F3D102780023120704D5702DAF
:102BF00006D009B1022311342246F0BC00F054B9CA
:102C000001231034F8E770B504460D4621461068DC
:102C100000F041F9024629462046BDE870400023F5
:102C2000C6E7D21D22F00703D3E90023C0E70368FB
:102C3000126843F0200303600823C3610023B7E751
:102C40006C1800002DE9F05F894604464FF0000A39
:102C5000DFF874B1FB44C0F820A02046E168884743
:102C6000002874D0252806D0D4E901219047206A95
:102C7000401C2062F1E700265F462046E168884755
:102C80002028054607DB312D05D2781910F8200CD5
:102C900008B10643F1E7B00701D526F00406C4F8F1
:102CA0001CA00027C4F818A02A2D09D0284601F03E
:102CB00086FB38B304EB8708303DC8F8185019E09C
:102CC00059F8041B204604EB87029161E1688847AC
:102CD000012F054618D1E069002820DA26F02006E9
:102CE0001DE0D8F8180000EB800005EB40003038FC
:102CF000C8F818002046E1688847054601F05FFBE8
:102D00000028EED1012F0AD02E2D08D12046E168EF
:102D100088477F1C0546022F46F02006C4DBA069C9
:102D2000002803DA404246F00106A061F00701D016
:102D300026F010066C2D0BD0682D09D04C2D39D003
:102D40006A2D35D0742D35D07A2D33D016E038E089
:102D5000E1682F4620468847B842054609D16C2FC6
:102D600026D04FF48060E168064320468847054638
:102D700004E06C2F1AD04FF4807006430DB3A5F118
:102D80004100192802D8203546F400664A462946F3
:102D9000204626604E46FDF7E3F980B101280BD0AE
:102DA000F61D26F0070000F1080956E74020E4E789
:102DB0008020D8E70020D6E706F104094DE7284631
:102DC00052E7206ABDE8F09FFC17000030B50546C9
:102DD0000B462A4613F8014B12F8010B08B1A0422A
:102DE000F8D01CB1002802D06D1CF1E7284630BD98
:102DF00010B5431C02E010F8011B71B18107FAD134
:102E00004FF0013202C88C1A8C4314EAC211F9D077
:102E1000C01A0A0603D0C01E10BDC01A10BD0A0495
:102E200001D0801E10BD0902FCD0401E10BD4FF025
:102E3000000200B5134694469646203922BFA0E80A
:102E40000C50A0E80C50B1F12001BFF4F7AF090716
:102E500028BFA0E80C5048BF0CC05DF804EB890007
:102E600028BF40F8042B08BF704748BF20F8022B4A
:102E700011F0804F18BF00F8012B70477047704762
:102E80007047704709684A0501D540B27047C905C7
:102E9000FCD500B2704709684A0501D5C0B2704739
:102EA000C905FCD580B270472DE9F0470D4699461B
:102EB0009246044600F124080168880604D5E069BA
:102EC00021F01001216000E00120A84201DD471B34
:102ED00000E00027A1697A1902EB0900081AA06135
:102EE0002078C00602D42046FFF7D6FD002608E071
:102EF000D4E901211AF806009047206A401C761C8C
:102F000020624E45F4DB2078C0060AD52046FFF744
:102F1000C3FD06E0D4E9012130209047206A401C1F
:102F20002062381EA7F10107F4DC07E0D4E9012193
:102F300018F805009047206A401C2062281EA5F161
:102F40000105F3DC2046FFF7BDFD2078000602D521
:102F50000220BDE8F0870120FBE711680268006AE3
:102F6000530501D508700AE0D30501D5088006E0B5
:102F7000130603D5C217C1E9000200E00860012072
:102F80007047000001694A1C02610878704700B56B
:102F90008FB0CDE901310021059105497944CDE992
:102FA000031011466846FFF74DFE0FB000BD00004C
:102FB000E5FFFFFF0A6802F8010B0A60704710B5D1
:102FC000436913B1AFF3008001E0FFF78CFD0120EE
:102FD00010BD127800F124010A7000224A7001220B
:102FE000EDE711684FF0FF32E9E70000074B70B5DD
:102FF0000D467B44FFF7CBFF0446284600F0C2FC99
:1030000010B14FF0FF3070BD204670BD8BD5FFFF73
:103010002DE9FF5F15468A460446DFF8AC80F84488
:103020000027D8E900103E46CDE9001010E03AF83C
:1030300016106A4602A800F0A9FC411C07D02178AE
:10304000890603D5E269391891420DD80744761CE8
:103050002078800602D5E069B84205DDAE42E6DBA5
:103060003AF816000028E2D1A069C01BA0612046F2
:10307000FFF712FDD8E90010CDE90010002017E09D
:103080003AF818106A4602A800F080FCB0F1FF3F41
:1030900081460BD000250DF1080B05E0D4E9012194
:1030A0001BF8050090476D1C4D45F7D308F1010052
:1030B000B0428046E4DB206A384420622046FFF7B5
:1030C00001FDBDE8FF9F0000461400002DE9F0411E
:1030D0008046D21D22F007020025D2E90002F52920
:1030E00015A614D0011E72F1000106DA0023D0EB00
:1030F000030063EB020211A608E0D8F800108B076A
:1031000001D50FA602E0490701D50EA601251146FB
:10311000002408F1240704E000F04EF830323A555C
:10312000641C50EA0102F7D12B4632462146404644
:10313000BDE8F041FFF7B8BE000000002D00000020
:103140002B0000002000000030B4002100F1240416
:1031500008E002F00705D208303542EA4372DB0886
:103160006554491C52EA0305F3D10468002310A2F8
:10317000250708D504F020040C4304D0C4690123BA
:103180000CA2641EC46130BCFFF78EBE10B50446AD
:1031900021461068FFF77FFE02462046BDE810403A
:1031A0000023D1E7D21D22F00701D1E90023CBE7AC
:1031B000000000003000000030B5B0F10A024FEA14
:1031C000900E71F100034EEA817EB0EB0E0061EBD0
:1031D00091014FEA101E4EEA017E10EB0E0041EB0A
:1031E00011114FEA102E4EEA016E10EB0E0041EB6A
:1031F00011214FEA104E4EEA014E10EB0E0041EB4A
:103200001141401841F100014FEAD00040EA4170FD
:103210004FEAD10110EB80054FEA810444EA907433
:1032200044EB01046D1944EB0404521BA3414FF01D
:10323000000348BF0A3200D530BD401C41F10001F7
:1032400030BD70472DE9FF4F0C461E464FF0FF374B
:103250008BB0D2E90001DDF860800A908A46C1F3A4
:103260000A5505B93D46002108464FF00000BAF165
:10327000000F00F4400005DA00EB80004FF440013D
:1032800001EA50004FEA9059B9F1010F00DDB9464B
:103290000A9850EA4A000ED044F61050A5F2FF35C5
:1032A00045432F14B8F1000F1ED07542291E1EDDB4
:1032B000C9F100021CE0B8F1010F4FF0000001D08D
:1032C000302103E0F24305E02154401CB042FBDB17
:1032D00030460022002121540B99C1F80880C1E931
:1032E00000200FB0BDE8F08FBD1B6D1CDEE74A4625
:1032F00000DA694206A800F0DBFB06AB93E80700A2
:1033000003AB83E8070050460A9900F089FC8DE87A
:103310000700A0F500501F3800900398002D09DD2C
:1033200042F21F014A46084403A90390684600F090
:10333000E8FE08E0A0F500504A461F3803A90390B4
:10334000684600F0F2FE8DE807000004000C03D090
:103350004FF0FF30410800E01046B8F1000F03D0F5
:103360000022009215461EE0751E05D4FFF724FFCB
:10337000303262556D1EF9D5B3460122084302D0A2
:1033800000227F1C04E02078302801D100227F1E1B
:10339000002A099786D01DE0112D07DAFFF70CFFF0
:1033A000303262556D1C50EA0102F5D1084302D05B
:1033B0000098C8B10EE00021681E05E0235C625C45
:1033C00063542254401E491C8142F7DBAB46A81BC4
:1033D000401E0990002004F80B000B98099AC0F8D1
:1033E0000880C0E9002B7CE711264FF0000859E760
:1033F0002DE9F04F88460446D21D22F0070191B016
:10340000D1E90001CDE90A0100F0C5FF02460B98A1
:10341000C00F01D02D2007E02068810701D52B20A7
:1034200002E0202101EAC000032A099001D0072A06
:1034300005DB03464146204600F0FAFA0BE120780E
:10344000800601D5E06900E00620B8F1650F8146ED
:1034500006D0B8F1660F18D0B8F1670F70D131E01F
:103460000020B9F1110F009001DB112301E009F1F7
:1034700001030AAA01A90CA8FFF7E4FEDDE90C701C
:10348000002609F10105834647E001204B460090E4
:103490004FF000470AAA01A90CA8FFF7D3FEDDE907
:1034A0000DB00C995D46002610B909F101000D1808
:1034B000B9EB050003D4C0F1FF3609F10105A5EB16
:1034C00009002BE0B9F1010F01DA4FF001090020EA
:1034D000B9F1110F0090484601DD112300E00346C9
:1034E0000AAA01A90CA8FFF7ADFEDDE90C704D4654
:1034F00000268346207800070AD4AB4500DA5D46F3
:1035000001A8012D04DD411911F8011C302907D053
:103510004F4502DA17F1040F04DA012082460FE06A
:103520006D1EEEE7002F02DCED1B3E4403E0781C2D
:10353000A84200DD7D1CB81B00F1010A4FF00047D6
:103540002078000703D4AA4501DB4FF0FF3A0021A1
:10355000B7F1004F0DF143088DF8431024D002203D
:103560002B23002F01DA7F422D230A21021EA0F116
:10357000010000DC5FB197FBF1FC97FBF1F201FB6E
:103580001C7C17460CF1300C08F801CDEEE7A8F1D1
:10359000010003702188090501D5452100E065215E
:1035A000A0F1010800F8011C09980FA9A1EB080778
:1035B000FF1D00B10120411901EBEA70A1693844F7
:1035C000081A401EA0612078C00602D42046FFF7EA
:1035D00063FA099828B1D4E901219047206A401C78
:1035E00020622078C00622D52046FFF755FA1EE05B
:1035F000002E04DBB34502DD01A8805D00E0302031
:10360000D4E901219047206A401C2062761CAAF16F
:1036100001005FEA000A0AD100F006FAC0680168FA
:10362000405CD4E901219047206A401C2062281E9A
:10363000A5F10105DCDC07E0D4E9012118F8010B54
:103640009047206A401C2062381EA7F10107F3DC76
:103650002046FFF737FA032011B043E62DE9F04F7B
:1036600004460D46D21D22F0070089B0D0E9009231
:1036700048461746394600F08EFE0246F80F01D044
:103680002D2307E02068810701D52B2302E02021AC
:1036900001EAC0038DF820300BB1012000E00020CA
:1036A000032A824601D0072A04DB2946204600F07F
:1036B000BFF93DE12078800601D40D2500E0E569E1
:1036C000C7F30A560D2D49DA00214FEA175B084669
:1036D0004FF00000002F00F4400007DA00EB8000FC
:1036E0004FF4400100EBD07001EA60008115012920
:1036F00001DD4FF0FF3100224FEA850CBCF1180FBD
:1037000006D31346ACF118004FF08052C24003E0DC
:103710004FF4801323FA0CF30CF10C0CBCF1200FC6
:1037200004D3ACF1200C09FA0CF001E007FA0CF01C
:1037300000294FF0004801DD18B90FE00ED14045D7
:103740000CD319EB02095F4121B9404502D19F43D7
:1037500029EA0209BBEB175F00D0761C2088000520
:1037600002D57B48784402E079487844193808AAA1
:10377000302302F80A30037C0AF10101002E0AF11D
:10378000020A53546A4602DC4FF0300101E04FF068
:1037900031014FF001088DF8001002D0A6F2FF367B
:1037A00003E059EA470100D06A4E002D02DC21787F
:1037B000090704D54FF002082E218DF80110C446E8
:1037C00000210BE0C7F303433F01C35C491C6D1E9E
:1037D00002F80830052908F1010801DA002DF1DCB2
:1037E00000210CE000EB1973491C1B786D1E0829A1
:1037F00002F808304FEA091908F1010801DA002D32
:10380000F0DC2178890602D514E0A8F10108E04532
:1038100005DD02EB080111F8011C3029F5D0B8F1E3
:10382000000F07DD02EB080111F8011C2E2901D160
:10383000A8F10108002D05DD3E2102F808106D1EDB
:1038400008F10108407C002E02F8080008F1010888
:1038500004DA2D20764202F8080002E02B2002F85C
:1038600008000A214FF47A70864208F101080BDB48
:1038700096FBF0F3303302F8083096FBF0F308F1D2
:10388000010800FB136601E0642E0CDB642096FB4C
:10389000F0F3303302F8083096FBF0F308F101083A
:1038A00000FB136601E00A2E06DB96FBF1F03030D8
:1038B00002F8080008F1010896FBF1F001FB106026
:1038C000303002F80800A16908F1010808EB050290
:1038D00002EB0A00081AA0612078C00602D4204634
:1038E000FFF7DAF8216A08AE01EB0A00206204E073
:1038F000D4E9012116F8010B9047BAF1010AF7D279
:103900002078C00602D52046FFF7C6F86E4609E0CB
:1039100016F8010B3E280FD0D4E901219047206A08
:10392000401C2062B8F10108F2D22046FFF7CAF825
:1039300009B00320BDE8F08F206A2844206203E02C
:10394000D4E90121302090476D1EEBD3F8E7000049
:103950001B0D000002FCFFFF10B5436913B1AFF36C
:10396000008001E0FFF754FB012010BD128800F138
:10397000240182840022C2840122EDE711684FF005
:10398000FF32E9E7007B00F08000704770B5164613
:103990000C46054600F040F8036893F80101012841
:1039A00006D0FF2C0FD8185D68B101202C7070BDB7
:1039B000D3F807013246214603F207130344284691
:1039C000BDE8704018474FF0FF3070BD754600F0FD
:1039D000E3F8AE4605006946534620F007008546E9
:1039E00018B020B5FCF7E2FFBDE820404FF000061C
:1039F0004FF000074FF000084FF0000B21F00701D7
:103A0000AC46ACE8C009ACE8C009ACE8C009ACE819
:103A1000C0098D467047000010B500F005F8001D84
:103A200010BD00BFD509000000487047E006002027
:103A30002DE9F0411F46044603260168072A01F4D8
:103A4000006004DB08B116A505E016A503E008B187
:103A500015A500E015A521F010002060A069C01E8A
:103A6000A0610FB1401EA0612046FFF715F84FB1CD
:103A7000D4E9012138469047206A401C2062C01CCE
:103A8000206206E0206AFAE7D4E9012115F8010B6B
:103A90009047761EF8D22046FFF714F8BDE8F08173
:103AA0004E414E006E616E00494E4600696E6600E2
:103AB0002DE9F047814616468AB0334878440DC850
:103AC0008DE80D0030487844801C03AC0DC884E8B4
:103AD0000D0041F69B300844372190FBF1F290FB3A
:103AE000F1F5A5F1800501FB12041B3C02D56442EF
:103AF000012000E00020DFF890A080460027FA4473
:103B0000AAF1BE0A0DE0E00709D03246684607EB8D
:103B100047010AEB810100F008FB8DE80700641003
:103B20007F1C002CEFD1184F7F44AC3F18E0E80712
:103B300014D007EB04100DF1180A90E80E008AE883
:103B40000E00C068F04201D198190890324606A9CB
:103B500003A800F0EAFA03AB83E807006D10641CC9
:103B6000002DE4D132466946B8F1000F03A802D017
:103B700000F0C7FA01E000F0D8FAC9E90001C9F87D
:103B800008200AB0BDE8F087540A00000446AFF3ED
:103B900000802046FCF747FB00487047C006002025
:103BA0004FF0013C50F8042B51F8043B9A4221D1CC
:103BB000A2EB0C03934313EACC1317D150F8042B58
:103BC00051F8043B9A4215D1A2EB0C03934313EA3C
:103BD000CC130BD150F8042B51F8043B9A4209D175
:103BE000A2EB0C03934313EACC13DBD04FF000009D
:103BF000704700BFD01A01BAB1FA81F101F0180183
:103C000022FA01F0CB40C1F12001DBB2C0B2C01AF0
:103C10002CFA01F3D11A914311EAC311E6D170478E
:103C20005FEA400C08BF91F0000F4FEA8C234FEA87
:103C3000C12243EA51514FEA1C5018BF00F5F04031
:103C40004FEA300018BF41F000415FEA6C5C00F0C1
:103C50002980BCF1FF3F08BF40F080407047130C43
:103C600006BF12044FF0100C4FF0000C130E04BFEF
:103C700012020CF1080C130F04BF12010CF1040C1A
:103C8000930F04BF92000CF1020CD30F04BF52003B
:103C90000CF1010C11464FF00002A0F11F00A0EB47
:103CA0000C00704711F0004F08BF704731F0004121
:103CB0003FF4D5AF0B0C06BF09044FF0100C4FF0CA
:103CC000000C0B0E04BF09020CF1080C0B0F04BF13
:103CD00009010CF1040C8B0F04BF89000CF1020CDC
:103CE000CB0F04BF49000CF1010CCCF12003A0EB79
:103CF0000C0022FA03F302FA0CF241EA030100F18C
:103D00000100704720F07F4C80EA030023F07F47DA
:103D1000ACEB070303F57C5300F0004003F1FF0315
:103D20002DE980494FEA154B09B44FEA144325EABF
:103D30000B4E24EA03480FF2042606EB132749082A
:103D40003E785FEA320203FB0667C7F5000707FB10
:103D500006F64FEA54374FEAD64606F1020607FB4D
:103D6000066CCCF1005C4FEA1C472CEA074C07FBC1
:103D700006F40CFB06F504EB15464FEA961634BF25
:103D800000204FF000404FEAD13706FB07FC4FEA16
:103D90001C4C0CFB0BF7D21B03FB0CF761EB070170
:103DA0000CFB0EF7B0EB074072EB17420CFB08F769
:103DB00034BFA2EB0742B2EB074261EB17414FEA77
:103DC0000C444FEA910706FB07FC4FEA1C4C0CFB26
:103DD0000BF7B0EBC74072EB573203FB0CF734BF65
:103DE000A2EBC742B2EBC74261EB57310CFB0EF7B7
:103DF000B0EBC70072EB57720CFB08F734BFA2EBB5
:103E0000C702B2EBC70261EB5771039F4FEA8161B2
:103E100041EA921104EBCC044FEAD1374FEA8262B7
:103E200006FB07FC42EA90124FEA80604FEA1C4C06
:103E30000CFB0BF7D21B03FB0CF761EB07010CFB30
:103E40000EF7B0EB074072EB17420CFB08F734BFDC
:103E5000A2EB0742B2EB074261EB17414FEA8C55E8
:103E60004FEA910704EB9C2406FB07FC4FEA1C4C2D
:103E70000CFB0BF7B0EBC74072EB573203FB0CF7B0
:103E800034BFA2EBC742B2EBC74261EB57310CFB28
:103E90000EF7B0EBC70072EB57720CFB08F734BF9C
:103EA000A2EBC702B2EBC70261EB577115EB4C25D1
:103EB0004FEA816141EA92114FEA82624FEAD137BB
:103EC00042EA901206FB07FC44F100044FEA8060CE
:103ED0004FEA1C4C0CFB0BF7D21B03FB0CF761EBFE
:103EE00007010CFB0EF7B0EB074072EB17420CFB1F
:103EF00008F734BFA2EB0742B2EB074261EB174170
:103F000015EB1C154FEA813141EA92414FEA8232AA
:103F100042EA90424FEA80304FEA0C7644F10004C6
:103F200048EA03434EEA0B484FF0000EB2EB080C90
:103F300071EB030724BF624639464EEB0E0E4FF07D
:103F4000000B0018524149414BEB0B0BB2EB080C34
:103F500071EB03077BF1000B24BF624639464EEB41
:103F60000E0E4FF0000B0018524149414BEB0B0B6A
:103F7000B2EB080C71EB03077BF1000B24BF624628
:103F800039464EEB0E0E51EA020718BF46F0010605
:103F900016EB0E7655F1000254F1000103D5BDE891
:103FA0008901BDE80088BDE88901BDE80048B6196F
:103FB000524141EB0101A3F10103704780807F7EF4
:103FC0007D7C7B7A7978777676757473727171708F
:103FD0006F6E6E6D6C6C6B6A6A6968686766666541
:103FE0006464636362616160605F5F5E5E5D5D5CCF
:103FF0005C5B5B5A5A595958585757565655555540
:104000005454535352525251515050504F4F4F4E9F
:104010004E4D4D4D4C4C4C4B4B4B4A4A4A494949ED
:10402000484848474747474646464545454444442F
:10403000444343434342424242414141002B26D440
:10404000770021D01CB54FEA370703B44FF01000BA
:104050004FF010014FF000000FBCBDE810400BF115
:10406000010BBBF1010F08BF5FEA170722BF12F176
:10407000010211F101014FF0004143F1000300F092
:10408000004043EA00007047F9D35708DAE746EAF0
:10409000064613F1400F4FEA16461FDD13F1200FBD
:1040A000DFBF16430A46002120335B42C8D0C3F16C
:1040B000200746EA064602FA07F74FEA164646EA9E
:1040C0000706C3F1200722FA03F201FA07F721FAE3
:1040D00003F14FF0000342EA0702B1E746EA0206A5
:1040E00046EA06464FEA164646EA0106BCBF46EADD
:1040F0000646360C4FF000034FF000024FF000016F
:104100009EE72DE9C048934630B491E8380007C8CF
:1041100031EA400C48BF34EA430C03D5FFF7F2FD07
:10412000FFF78CFFF0BCBDE800882DE9C04893463E
:1041300030B491E8380007C810F0804F08BF13F082
:10414000804F03D100F005F8FFF778FFF0BCBDE821
:10415000008820F07F4780EA030023F07F4C07EBC4
:104160000C03A3F57C5300F00040A3F1FE0392F092
:10417000000F00F0B38095F0000F00F077802DE97C
:1041800001494FEA11404FEA144621EA004800FB7A
:1041900006FC24EA064708FB06F607FB08F800FBC6
:1041A00007F718EB06484CEB164C4FEA124B18EB8E
:1041B00007484FEA15464CEB174022EA0B4E0BFB23
:1041C00006FC25EA06470EFB06F607FB0EFE0BFB78
:1041D00007F71EEB064E4CEB164C4FF000061EEB9D
:1041E000074E4CEB174B18EB0B0840F1000018EB97
:1041F0000E0B58EB000840F100008F1A4FF0000141
:104200003CBFC943661B14BFB5EB040C00213CBF87
:10421000C943F61B4FEA17444EEA8E0E27EA0445BF
:104220004FEA1C4704FB07622CEA074C05FB07F723
:104230000CFB05F604FB0CFC16EB074642EB1742A1
:1042400016EB0C4642EB1C421BEB060658EB020237
:10425000414146EA9E0601D5BDE80189B6195241A1
:1042600041EB0101A3F10103BDE801894FEA1445C7
:104270004FEA114724EA054621EA074C05FB07F4FB
:1042800006FB07F70CFB06F105FB0CFC11EB0741E5
:1042900044EB17444FEA124711EB0C4144EB1C442A
:1042A00022EA074C05FB07F206FB07F70CFB06F6B4
:1042B00005FB0CFC16EB074642EB174216EB0C46CF
:1042C00042EB1C456A1854F1000148BF7047B6190B
:1042D000524141EB0101A3F10103704795F0000F3A
:1042E00037D04FEA11424FEA144721EA024624EA46
:1042F000074C02FB07F106FB07F70CFB06F402FB79
:104300000CFC14EB074441EB17414FEA154714EB43
:104310000C4441EB1C4125EA074C02FB07F506FB68
:1043200007F70CFB06F602FB0CFC16EB074645EB09
:10433000174516EB0C4645EB1C42121951F10001D2
:1043400048BF7047B619524141EB0101A3F1010387
:1043500070474FEA14454FEA114724EA054621EA1F
:10436000074C05FB07F106FB07F70CFB06F24FF0C5
:10437000000605FB0CFC12EB074241EB174112EB68
:104380000C4251EB1C4148BF7047921841EB0101B0
:10439000A3F101037047490050EAC12018BF04206F
:1043A0004A0D18BF40F0010040F2FF72B2EB515FBE
:1043B00008BF40F00200012808BF052070473038D0
:1043C0000A2801D2012070470020704710B500294B
:1043D0000AD00878002807D005487844FFF7E0FBAA
:1043E000002801D0002010BD0248784410BD000014
:1043F000720100006A01000010B500290AD0087897
:10440000002807D005487844FFF7CAFB002801D0F0
:10441000002010BD0248784410BD00006201000079
:104420005A010000FEF7E4BFFFF718B9303132330C
:1044300034353637383941424344454640305800D8
:10444000303132333435363738396162636465660A
:104450004030780004000008000000000000000266
:10446000000100001000000000000000000000003B
:1044700030313233343536373839616263646566DA
:104480007870003031323334353637383941424371
:10449000444546585000000002400000000000A0C3
:1044A0000000000005400000000000C800000000FF
:1044B0000C4000000000409C00000000194000007B
:1044C0000020BCBE0000000034400000BFC91B8EAD
:1044D00000000004B5400000504BCFD06607E2CF8B
:1044E000010000006C4100003E8251AADFEEA734BB
:1044F00001000000D9420000DCB5A0E23A301F976D
:10450000FFFFFFFFB4450000FD25A0C8E9A3C14F90
:10451000FFFFFFFFFF3F00000000008000000000E1
:10452000FF3F000000000080000000007846000807
:10453000000000205800000028010008D0460008B4
:1045400058000020C80C0000440100081C000000B6
:1045500043000000F8FFFFFF0C0000000E00000009
:104560000F0000002E0000001001000043000000BA
:10457000F8FFFFFF00404040404040404040414184
:104580004141414040404040404040404040404028
:1045900040404040400502020202020202020202C2
:1045A00002020202022020202020202020202002BF
:1045B000020202020202909090909090101010104F
:1045C00010101010101010101010101010101010EB
:1045D000020202020202888888888888080808087F
:1045E000080808080808080808080808080808084B
:1045F0000202020240000000000000000000000073
:1046000000000000000000000000000000000000AA
:10461000000000000000000000000000000000009A
:10462000000000000000000000000000000000008A
:10463000000000000000000000000000000000007A
:10464000000000000000000000000000000000006A
:10465000000000000000000000000000000000005A
:10466000000000000000000000000000000000004A
:10467000000000000000000000127A0000000000AE
:104680000000000001020304060708090000000002
:10469000000000000000000000000000000000001A
:1046A00000000000010203040102030406070809D8
:1046B00002040608010017030500000103000000C2
:1046C00000000000000000000000000000000000EA
:04000005080000ED02
:00000001FF
